{
	"data": {
		"bytecode": {
			"linkReferences": {},
			"object": "6080604052348015600e575f5ffd5b5060ad80601a5f395ff3fe6080604052348015600e575f5ffd5b50600436106026575f3560e01c80633ebca8e114602a575b5f5ffd5b60306032565b005b3373ffffffffffffffffffffffffffffffffffffffff167fe3cba3b68882650dc76730e77105080229f9f61f5c33b10e9aa239ff26d01d9460405160405180910390a256fea2646970667358221220aed29bb36df62f69537d881f76adb2d6a572d5d3ac663561ace2339a485b754a64736f6c634300081f0033",
			"opcodes": "PUSH1 0x80 PUSH1 0x40 MSTORE CALLVALUE DUP1 ISZERO PUSH1 0xE JUMPI PUSH0 PUSH0 REVERT JUMPDEST POP PUSH1 0xAD DUP1 PUSH1 0x1A PUSH0 CODECOPY PUSH0 RETURN INVALID PUSH1 0x80 PUSH1 0x40 MSTORE CALLVALUE DUP1 ISZERO PUSH1 0xE JUMPI PUSH0 PUSH0 REVERT JUMPDEST POP PUSH1 0x4 CALLDATASIZE LT PUSH1 0x26 JUMPI PUSH0 CALLDATALOAD PUSH1 0xE0 SHR DUP1 PUSH4 0x3EBCA8E1 EQ PUSH1 0x2A JUMPI JUMPDEST PUSH0 PUSH0 REVERT JUMPDEST PUSH1 0x30 PUSH1 0x32 JUMP JUMPDEST STOP JUMPDEST CALLER PUSH20 0xFFFFFFFFFFFFFFFFFFFFFFFFFFFFFFFFFFFFFFFF AND PUSH32 0xE3CBA3B68882650DC76730E77105080229F9F61F5C33B10E9AA239FF26D01D94 PUSH1 0x40 MLOAD PUSH1 0x40 MLOAD DUP1 SWAP2 SUB SWAP1 LOG2 JUMP INVALID LOG2 PUSH5 0x6970667358 0x22 SLT KECCAK256 0xAE 0xD2 SWAP12 0xB3 PUSH14 0xF62F69537D881F76ADB2D6A572D5 0xD3 0xAC PUSH7 0x3561ACE2339A48 JUMPDEST PUSH22 0x4A64736F6C634300081F003300000000000000000000 "
		},
		"gasEstimates": {
			"creation": {
				"codeDepositCost": "34600",
				"executionCost": "85",
				"totalCost": "34685"
			},
			"external": {
				"emitCountLog()": "1281"
			}
		},
		"methodIdentifiers": {
			"emitCountLog()": "3ebca8e1"
		}
	},
	"abi": [
		{
			"inputs": [],
			"stateMutability": "nonpayable",
			"type": "constructor"
		},
		{
			"anonymous": false,
			"inputs": [
				{
					"indexed": true,
					"internalType": "address",
					"name": "msgSender",
					"type": "address"
				}
			],
			"name": "WantsToCount",
			"type": "event"
		},
		{
			"inputs": [],
			"name": "emitCountLog",
			"outputs": [],
			"stateMutability": "nonpayable",
			"type": "function"
		}
	]
}